{
  "_format": "hh-sol-artifact-1",
  "contractName": "DonateWeb3",
  "sourceName": "contracts/DonateWeb3.sol",
  "abi": [
    {
      "inputs": [],
      "stateMutability": "nonpayable",
      "type": "constructor"
    },
    {
      "anonymous": false,
      "inputs": [
        {
          "indexed": true,
          "internalType": "address",
          "name": "from",
          "type": "address"
        },
        {
          "indexed": false,
          "internalType": "uint256",
          "name": "timestamp",
          "type": "uint256"
        },
        {
          "indexed": false,
          "internalType": "string",
          "name": "name",
          "type": "string"
        },
        {
          "indexed": false,
          "internalType": "string",
          "name": "message",
          "type": "string"
        }
      ],
      "name": "NewPost",
      "type": "event"
    },
    {
      "inputs": [
        {
          "internalType": "string",
          "name": "_name",
          "type": "string"
        },
        {
          "internalType": "string",
          "name": "_message",
          "type": "string"
        }
      ],
      "name": "donate",
      "outputs": [],
      "stateMutability": "payable",
      "type": "function"
    },
    {
      "inputs": [],
      "name": "getPost",
      "outputs": [
        {
          "components": [
            {
              "internalType": "address",
              "name": "from",
              "type": "address"
            },
            {
              "internalType": "uint256",
              "name": "timestamp",
              "type": "uint256"
            },
            {
              "internalType": "string",
              "name": "name",
              "type": "string"
            },
            {
              "internalType": "string",
              "name": "message",
              "type": "string"
            }
          ],
          "internalType": "struct DonateWeb3.Post[]",
          "name": "",
          "type": "tuple[]"
        }
      ],
      "stateMutability": "view",
      "type": "function"
    },
    {
      "inputs": [],
      "name": "withdrawTips",
      "outputs": [],
      "stateMutability": "nonpayable",
      "type": "function"
    }
  ],
  "bytecode": "0x608060405234801561001057600080fd5b50336000806101000a81548173ffffffffffffffffffffffffffffffffffffffff021916908373ffffffffffffffffffffffffffffffffffffffff160217905550610c91806100606000396000f3fe6080604052600436106100345760003560e01c80631653441c146100395780633aaa74b2146100555780638c6838ba1461006c575b600080fd5b610053600480360381019061004e91906105ae565b610097565b005b34801561006157600080fd5b5061006a610211565b005b34801561007857600080fd5b50610081610271565b60405161008e919061082b565b60405180910390f35b600034116100da576040517f08c379a00000000000000000000000000000000000000000000000000000000081526004016100d1906108d0565b60405180910390fd5b600160405180608001604052803373ffffffffffffffffffffffffffffffffffffffff16815260200142815260200184815260200183815250908060018154018082558091505060019003906000526020600020906004020160009091909190915060008201518160000160006101000a81548173ffffffffffffffffffffffffffffffffffffffff021916908373ffffffffffffffffffffffffffffffffffffffff1602179055506020820151816001015560408201518160020190816101a29190610afc565b5060608201518160030190816101b89190610afc565b5050503373ffffffffffffffffffffffffffffffffffffffff167f77a664279365f380c6fd1496feacd22dfa4d68c9ad2b1a0fe2f21dc1b9518d6942848460405161020593929190610c16565b60405180910390a25050565b60008054906101000a900473ffffffffffffffffffffffffffffffffffffffff1673ffffffffffffffffffffffffffffffffffffffff166108fc479081150290604051600060405180830381858888f1935050505061026f57600080fd5b565b60606001805480602002602001604051908101604052809291908181526020016000905b8282101561044b57838290600052602060002090600402016040518060800160405290816000820160009054906101000a900473ffffffffffffffffffffffffffffffffffffffff1673ffffffffffffffffffffffffffffffffffffffff1673ffffffffffffffffffffffffffffffffffffffff168152602001600182015481526020016002820180546103289061091f565b80601f01602080910402602001604051908101604052809291908181526020018280546103549061091f565b80156103a15780601f10610376576101008083540402835291602001916103a1565b820191906000526020600020905b81548152906001019060200180831161038457829003601f168201915b505050505081526020016003820180546103ba9061091f565b80601f01602080910402602001604051908101604052809291908181526020018280546103e69061091f565b80156104335780601f1061040857610100808354040283529160200191610433565b820191906000526020600020905b81548152906001019060200180831161041657829003601f168201915b50505050508152505081526020019060010190610295565b50505050905090565b6000604051905090565b600080fd5b600080fd5b600080fd5b600080fd5b6000601f19601f8301169050919050565b7f4e487b7100000000000000000000000000000000000000000000000000000000600052604160045260246000fd5b6104bb82610472565b810181811067ffffffffffffffff821117156104da576104d9610483565b5b80604052505050565b60006104ed610454565b90506104f982826104b2565b919050565b600067ffffffffffffffff82111561051957610518610483565b5b61052282610472565b9050602081019050919050565b82818337600083830152505050565b600061055161054c846104fe565b6104e3565b90508281526020810184848401111561056d5761056c61046d565b5b61057884828561052f565b509392505050565b600082601f83011261059557610594610468565b5b81356105a584826020860161053e565b91505092915050565b600080604083850312156105c5576105c461045e565b5b600083013567ffffffffffffffff8111156105e3576105e2610463565b5b6105ef85828601610580565b925050602083013567ffffffffffffffff8111156106105761060f610463565b5b61061c85828601610580565b9150509250929050565b600081519050919050565b600082825260208201905092915050565b6000819050602082019050919050565b600073ffffffffffffffffffffffffffffffffffffffff82169050919050565b600061067d82610652565b9050919050565b61068d81610672565b82525050565b6000819050919050565b6106a681610693565b82525050565b600081519050919050565b600082825260208201905092915050565b60005b838110156106e65780820151818401526020810190506106cb565b60008484015250505050565b60006106fd826106ac565b61070781856106b7565b93506107178185602086016106c8565b61072081610472565b840191505092915050565b60006080830160008301516107436000860182610684565b506020830151610756602086018261069d565b506040830151848203604086015261076e82826106f2565b9150506060830151848203606086015261078882826106f2565b9150508091505092915050565b60006107a1838361072b565b905092915050565b6000602082019050919050565b60006107c182610626565b6107cb8185610631565b9350836020820285016107dd85610642565b8060005b8581101561081957848403895281516107fa8582610795565b9450610805836107a9565b925060208a019950506001810190506107e1565b50829750879550505050505092915050565b6000602082019050818103600083015261084581846107b6565b905092915050565b600082825260208201905092915050565b7f4572726f722e20446f6e6174696f6e2062656c6f7720746865206d696e696d7560008201527f6d21000000000000000000000000000000000000000000000000000000000000602082015250565b60006108ba60228361084d565b91506108c58261085e565b604082019050919050565b600060208201905081810360008301526108e9816108ad565b9050919050565b7f4e487b7100000000000000000000000000000000000000000000000000000000600052602260045260246000fd5b6000600282049050600182168061093757607f821691505b60208210810361094a576109496108f0565b5b50919050565b60008190508160005260206000209050919050565b60006020601f8301049050919050565b600082821b905092915050565b6000600883026109b27fffffffffffffffffffffffffffffffffffffffffffffffffffffffffffffffff82610975565b6109bc8683610975565b95508019841693508086168417925050509392505050565b6000819050919050565b60006109f96109f46109ef84610693565b6109d4565b610693565b9050919050565b6000819050919050565b610a13836109de565b610a27610a1f82610a00565b848454610982565b825550505050565b600090565b610a3c610a2f565b610a47818484610a0a565b505050565b5b81811015610a6b57610a60600082610a34565b600181019050610a4d565b5050565b601f821115610ab057610a8181610950565b610a8a84610965565b81016020851015610a99578190505b610aad610aa585610965565b830182610a4c565b50505b505050565b600082821c905092915050565b6000610ad360001984600802610ab5565b1980831691505092915050565b6000610aec8383610ac2565b9150826002028217905092915050565b610b05826106ac565b67ffffffffffffffff811115610b1e57610b1d610483565b5b610b28825461091f565b610b33828285610a6f565b600060209050601f831160018114610b665760008415610b54578287015190505b610b5e8582610ae0565b865550610bc6565b601f198416610b7486610950565b60005b82811015610b9c57848901518255600182019150602085019450602081019050610b77565b86831015610bb95784890151610bb5601f891682610ac2565b8355505b6001600288020188555050505b505050505050565b610bd781610693565b82525050565b6000610be8826106ac565b610bf2818561084d565b9350610c028185602086016106c8565b610c0b81610472565b840191505092915050565b6000606082019050610c2b6000830186610bce565b8181036020830152610c3d8185610bdd565b90508181036040830152610c518184610bdd565b905094935050505056fea26469706673582212208ff9f758515729d0bbaad92ea2e8dfd7e526aaedc2ccfbe639df9fe9672dfcc164736f6c63430008130033",
  "linkReferences": {},
  "deployedLinkReferences": {}
}